:020000040800F2
:1000000000000220890F0008E10F0008E10F00083E
:10001000E10F0008E10F0008E10F000800000000F8
:10002000000000000000000000000000DD1A0008D1
:10003000E10F000800000000C51B0008151C0008A7
:10004000E10F0008E10F0008E10F0008E10F0008D0
:10005000E10F0008E10F0008E10F0008E10F0008C0
:10006000E10F0008E10F0008E10F0008E10F0008B0
:10007000E10F0008E10F0008E10F0008E10F0008A0
:10008000E10F0008E10F0008E10F0008E10F000890
:10009000E10F0008E10F0008E10F0008E10F000880
:1000A000E10F0008E10F0008E10F0008E10F000870
:1000B000E10F0008E10F0008E10F0008E10F000860
:1000C000E10F0008E10F0008E10F0008E10F000850
:1000D000E10F0008ED0B0008E10F0008E10F000838
:1000E000E10F0008E10F0008E10F0008E10F000830
:1000F000E10F0008E10F0008E10F0008E10F000820
:10010000E10F0008E10F0008E10F0008E10F00080F
:10011000E10F0008E10F0008E10F0008E10F0008FF
:10012000E10F0008E10F0008E10F0008E10F0008EF
:10013000E10F0008E10F0008E10F0008E10F0008DF
:10014000E10F0008E10F0008E10F0008E10F0008CF
:10015000E10F0008E10F0008E10F0008E10F0008BF
:10016000E10F0008E10F0008E10F0008E10F0008AF
:10017000E10F0008E10F0008E10F0008E10F00089F
:08018000E10F0008E10F000887
:1001880040F24853C2F200031A780AB901201870E5
:10019800704700BF40F24450C2F2000008B503683F
:1001A8002BB140F20003C0F2000303B1984708BD29
:1001B80070B542F2507642F25075C0F60006C0F6AD
:1001C8000005761BB61006D0002455F8043B013410
:1001D8009847A642F9D142F2547642F25075C0F6D9
:1001E8000006C0F60005761B02F0A2FAB61006D08B
:1001F800002455F8043B01349847A642F9D170BD54
:1002080040F210430146C2F20003186800F008B833
:1002180040F210430146C2F20003186800F0A8BB80
:100228002DE9F04F01F10B04162C83B0064631D9A5
:1002380024F00704E30F8C422CBF194643F0010158
:10024800002930D1304600F0C5FFB4F5FC7F2FD22D
:100258004FEAD40C40F20005C2F2000505EBCC02CF
:100268002F46D368934200F02D825C6803F108089A
:10027800DA68304624F0030499681B195C68CA6080
:1002880044F0010491605C6000F0AEFF404603B0AA
:10029800BDE8F08F002310248C422CBF194643F090
:1002A80001010029CED00C234FF000083360EDE7A0
:1002B8005FEA542C04BF4FEAD40C4FEACC0040F05C
:1002C800868040F20005C2F2000528182F46C36850
:1002D800984206D10DE0002980F27981DB689842C6
:1002E80007D05A6822F00302111B0F29F3DD0CF125
:1002F800FF3C0CF1010CBD4A93689A4208BF78682C
:1003080024D0586820F00300011B0F2900F3C08196
:100318000029D260926080F29480B0F5007F80F06E
:100328007781C0084FF0010ED7F8048007EBC001B1
:1003380080100EFA00F0D960D1F808E040EA080011
:100348007860C3F808E0CEF80C308B604FF0010EEF
:100358004FEAAC030EFA03FE86457DD810EA0E0F6D
:1003680008D12CF0030C4FEA4E0E0CF1040C10EAE5
:100378000E0FF8D007EBCC0AE146D046D8F80C00AF
:10038800804507D196E1002B80F2A681C0688045A0
:1003980000F09081416821F003010B1B0F2BF2DD67
:1003A8008046C568011944F0010E58F8087F43F0EB
:1003B8000104C0F804E030464C60FD60AF60D160D5
:1003C8009160CA608A60CB5000F00EFF5EE7BCF116
:1003D800040F9EBF4FEA941C0CF1380C4FEACC0076
:1003E8007FF66FAFBCF1140F9CBF0CF15B0C4FEAAA
:1003F800CC007FF666AFBCF1540F9EBF4FEA143CA9
:100408000CF16E0C4FEACC007FF65BAFBCF5AA7F0F
:100418009EBF4FEAD43C0CF1770C4FEACC007FF634
:1004280050AF40F254539C4595BF4FEA944C4FF45B
:100438007C700CF17C0C4FF07E0C98BF4FEACC001E
:100448003FE71A1803F108083046536843F00103E0
:10045800536000F0C9FE19E7D7F80880D8F80430CF
:1004680023F003094C45C4EB090294BF0023012380
:100478000F2AD8BF43F00103002B00F0B98040F2E7
:100488004C5AD5F80834C2F2000A3046B3F1FF3F9F
:10049800DAF8002002F1100BA3441FBF0BF57E6BA6
:1004A8000BF11F0B2BF47E6B2BF01F0B594600F042
:1004B8005BFEB0F1FF3F034600F0188108EB09012D
:1004C800814200F21081DAF8042081425A44CAF8C5
:1004D800042000F03E81D5F808E440F20005C2F29D
:1004E8000005BEF1FF3F17BF8218C5F80804C1EB2D
:1004F8000201CAF8041010F0070517BFC5F1080576
:100508004FF48055431905F5805503EB0B0230462F
:1005180001931205120DAD1A294600F025FE019B24
:10052800B0F1FF3F00F02C81C11A491941F00101D7
:10053800DAF80420B84540F24C5BBB602A44C2F2AA
:10054800000B5960CAF8042017D0B9F10F0F40F218
:10055800E180A9F10C03D8F8045023F00703052023
:1005680008EB03010F2B05F0010543EA0505C8F860
:1005780004504860886000F2FB80DAF82C1040F2E2
:100588004C53C2F200038A42DAF8301088BFDA62AC
:1005980040F24C538A42C2F2000340F2A780D7F8D7
:1005A80008801A63D8F8043023F003039C42C4EB94
:1005B800030294BF002301230F2AD8BF43F001038D
:1005C800B3B130464FF0000800F00EFE5EE69A1810
:1005D800D9689C6803F108085568304645F001035E
:1005E800E1608C60536000F0FFFD4FE608000020DA
:1005F80008EB040342F0010244F001043046C8F855
:10060800044008F108085A60BB6000F0EDFD3DE6C3
:10061800410A04299CBF4FEA901E0EF1380E1DD9DD
:10062800142998BF01F15B0E18D954299CBF4FEAD1
:10063800103E0EF16E0E11D9B1F5AA7F9CBF4FEA9C
:10064800D03E0EF1770E09D940F2545E714596BF3F
:100658004FEA904E4FF07E0E0EF17C0E07EBCE085F
:10066800D8F80810414503D147E08968884505D086
:10067800D1F804E02EF0030E7045F6D3D1F80CE063
:10068800C3F80CE099607868CB60CEF808305DE676
:100698001D1941F00107D56044F00104956030460A
:1006A8005C6003F10808EA60AA606F60695000F0B6
:1006B8009BFDEBE509F1010919F0030F2FD008F1B3
:1006C80008085BE603F108025B699A4208BF0CF16F
:1006D800020C3FF410AEC8E580464318C2683046A5
:1006E80058F8081FCAE5B8453FF4EDAED7F80880BA
:1006F800D8F8043023F0030358E74FF00109D7F87E
:1007080004804FEAAE008E4609FA00F048EA00007D
:100718007860B5E7984601225A60002346E75146BB
:100728001CF0030F0B460CF1FF3C2CD053F80819B2
:100738009942F5D07B684FEA4E0E9E453FF68CAE47
:10074800BEF1000F3FF488AE1EEA030F20D0CC465E
:1007580010E64FEA015E4FEA1E5EBEF1000F7FF41D
:10076800BAAEBB680BEB090141F00101596004E71F
:10077800304608F1080100F0FBF8DBF80420FCE63D
:1007880001210025D4E67B6823EA0E037B60D1E7CC
:100798004FEA4E0E09F10409D6E700BF032AC9B291
:1007A80070B408D82AB10346121803F8011B934203
:1007B800FBD170BC70478218044601E004F8011BA5
:1007C80014F0030FFAD14FF0013303FB01F31FE0DC
:1007D80044F8403C44F83C3C44F8383C44F8343C49
:1007E80044F8303C44F82C3C44F8283C44F8243C79
:1007F80044F8203C44F81C3C44F8183C44F8143CA9
:1008080044F8103C44F80C3C44F8083C44F8043CD8
:10081800161B254640343F2EDADC2C4607E044F808
:10082800103C44F80C3C44F8083C44F8043C161BC3
:10083800254610340F2EF2DC01E045F8043B541B2A
:10084800032CFADC01E005F8011B9542FBD3B0E765
:1008580041EA000313F0030F0B4670B414BF0024E1
:100868000124032A94BF002404F001040546D4B9E6
:10087800BAB10E782B46013A03F8016B56B1AC1C9D
:100888007AB111F8015F2346013A04F8015C01349A
:10089800002DF5D12AB19A18002103F8011B9342C3
:1008A800FBD170BC7047194653F8044BA4F10136CC
:1008B80026EA040616F0803FDAD1043A45F8044BDC
:1008C800032A1946EFD8D3E7F8B540F20004C2F27C
:1008D80000040F46054600F07DFCA3685E6826F01C
:1008E800030606F57E630F33DF1B3F0B013F3F0313
:1008F800B7F5805F07DB0021284600F035FCA368C8
:100908009B19984204D0284600F06EFC0020F8BDE0
:100918007942284600F028FCB0F1FF3F10D040F2A1
:100928005053A168C2F20003F61B284646F00106A0
:100938001A684E60D71B1F6000F056FC0120F8BDF6
:100948000021284600F010FCA368C21A0F2ADADD3D
:1009580040F2084440F25051C2F20004C2F20001D1
:1009680042F001025A602368C01A0860CBE700BF52
:100978002DE9F0410D460446002958D000F02AFC24
:10098800A5F1080240F200005668C2F2000026F005
:100998000103D0F808C0D1188C454F6827F0030729
:1009A80065D016F001064F6031D00026CD196D686C
:1009B80015F0010F06D1DB19002E4BD08D68C968E0
:1009C800E9608D6043F00101D3505160D6B9B3F5A9
:1009D800007F2ED3590A04296BD89E093836F500B2
:1009E8004519A968A94203D169E089688D4204D0F4
:1009F800486820F003008342F7D3CB68D360916046
:100A0800CA609A602046BDE8F04100F0EDBB55F899
:100A1800085C00F1080C521B5B199568654546D0C7
:100A2800D2F80CC0C5F80CC0CCF80850BEE7BDE839
:100A3800F081DB080125466800EBC3019B1015FA1D
:100A480003F3D1608D6846EA030343609560EA606A
:100A58008A60D7E78D682B4FBD42B0D1EA6043F07A
:100A68000101AA60D56095605160D350CAE716F0BD
:100A7800010F3B4407D155F8081C521A5B189568BA
:100A8800D168E9608D6040F20C4143F00105C2F283
:100A98000001556082600A689342B3D340F24C5318
:100AA8002046C2F200031968FFF70EFFAAE70126E5
:100AB8007CE714290CD801F15B06F50090E70125C5
:100AC8004768B6100B46B54047EA0505456095E707
:100AD800542903D81E0B6E36F50081E7B1F5AA7FBD
:100AE80003D8DE0B7736F5007AE740F25455A94271
:100AF80003D89E0C7C36F50072E74FF47C757E2691
:100B08006EE700BF0800002080B582B000AF7860B3
:100B180039607B68DB68002B02D14FF0000325E0C9
:100B280001F024F87B6819687B689B681A468A1864
:100B380011783A68117003F101027B689A607B684A
:100B48009A687B685B689A4206DB7B689A687B6870
:100B58005B68D21A7B689A607B68DB6803F1FF32B6
:100B68007B68DA6001F014F84FF00103184607F1CA
:100B78000807BD4680BD00BF80B584B000AF78606F
:100B88000B46FB707B68DA687B685B689A4202DB1D
:100B98004FF0000321E000F0E9FF7B689A687B686A
:100BA800DB68D318FB607B685A68FB689A4204DCF0
:100BB8007B685B68FA68D31AFB607B681A68FB6815
:100BC800D318FA781A707B68DB6803F101027B6836
:100BD800DA6000F0DDFF4FF00103184607F1100757
:100BE800BD4680BD80B582B000AF224B1B889BB24A
:100BF80003F02003002B17D01E4B9B889BB2DBB25F
:100C08001D481946FFF7B8FF0346002B06D11B4BBA
:100C18001B6803F10102194B1A6005E0174B5B686A
:100C280003F10102154B5A60124B1B889BB203F06B
:100C38008003002B1AD007F1070311481946FFF764
:100C480063FF0346002B03D00A4BFA799A8007E02A
:100C5800084B084A928992B222F0800292B29A8195
:100C6800064B9B6803F10102044B9A6007F10807E1
:100C7800BD4680BD0010014004050020800600200C
:100C88001405002080B582B000AF00F06FFF164B4E
:100C98005B6A7B60154B1B881A467B689A4203DDAA
:100CA8007B6803F580337B60104B1B887A68D31A06
:100CB80018464FEAE3710E4BD3E90023121843EBB1
:100CC80001030B49C1E900237B689AB2074B1A80DC
:100CD80000F05EFF064BD3E900231046194607F1E2
:100CE8000807BD4680BD00BF001400408C060020E8
:100CF8009006002080B584B000AF3B46184601F04E
:100D08008BFA0F4B0E4A126C42F020021A640D4BFC
:100D1800F9680D4AA2FB01024FEA924292B202F12F
:100D2800FF3292B21A85074B4FF6FF72DA62054B13
:100D38004FF001021A8007F11007BD4680BD00BFC1
:100D4800003802400014004083DE1B4380B582B0A7
:100D580000AF786019484FF010014FF001024FF0D2
:100D6800000301F059F8154801F03EF9134801F065
:100D78004BF903461A46124B1A60114B1B6807EED3
:100D8800903AB8EE677ADFED0F7A67EE277AFCEED5
:100D9800E77A17EE902A0C4B1A6000BF0B484FF009
:100DA800800101F065FC0346002BF7D0064B1B6859
:100DB8009BB20648194601F047FCD4E700200140E1
:100DC800980600200000A03A9C060020004400403D
:100DD80080B590B000AF4FF480704FF0010101F082
:100DE8001DFB4FF001004FF0010101F0D3FA4FF065
:100DF80020033B624FF0030387F824304FF00003D1
:100E080087F826304FF0030387F825304FF00003AA
:100E180087F8273007F120034248194601F002F904
:100E28004FF000033B614FF000037B614FF000037C
:100E3800BB614FF00003FB6107F11003184600F097
:100E480087FF4FF00003BB624FF0000387F82C3098
:100E58004FF0000387F82D304FF000033B634FF04D
:100E68000003BB634FF0010387F83C3007F1280308
:100E78002D48194600F00AFF4FF0010000F0B0FFBE
:100E880029484FF0010100F08FFF28484FF0020178
:100E98004FF0070201F06AF94FF004033B624FF08C
:100EA800020387F824304FF0000387F826304FF00C
:100EB800010387F827304FF0020387F8253007F140
:100EC80020031A48194601F0ADF84FF001004FF021
:100ED800010101F05FFA4FF400304FF0010101F019
:100EE8007BFA4FF416433B604FF00003BB804FF092
:100EF8000003FB804FF000033B814FF008037B8128
:100F08004FF00003BB813B460948194601F0A8FA97
:100F180007484FF0010101F077FB07F14007BD4694
:100F280080BD00BF000802400020014000000240D0
:100F38000044004080B584B004AFFFF749FF0E4B72
:100F48004FF0010200924FF0000201924FF00002B0
:100F580002924FF000020392084819464FF08002AF
:100F68004FF0000300F04AF900F0F8F94FF00003E1
:100F78001846BD4680BD00BFB8260008550D0008BC
:100F8800002103E00E4B5B58435004310D480E4BD3
:100F980042189A42F6D30D4A02E0002342F8043B75
:100FA8000B4B9A42F9D30B48016841F47001016078
:100FB80000F014F8FFF7FCF8FFF7BCFF70470000DB
:100FC800582700080000002044050020480500209C
:100FD800AC07002088ED00E0FEE7000080B500AF18
:100FE800124B124A126842F001021A600F4B4FF07E
:100FF80000029A600D4A0D4B1B6823F0847323F49A
:1010080080331360094B0A4A5A60084B074A126832
:1010180022F480221A60054B4FF00002DA6000F0DB
:101028000BF8044B4FF000629A6080BD0038024014
:101038001030002400ED00E080B483B000AF4FF022
:1010480000037B604FF000033B60424B414A12684B
:1010580042F480321A603F4B1B6803F400333B6054
:101068007B6803F101037B603B68002B03D17B683D
:10107800B3F5A06FEFD1374B1B6803F40033002B97
:1010880003D04FF001033B6002E04FF000033B60E8
:101098003B68012B42D12F4B2E4A126C42F08052F2
:1010A8001A642D4B2C4A126842F480421A60294B6C
:1010B800284A92689A60274B264A926842F400426E
:1010C8009A60244B234A926842F4A0529A60214BBA
:1010D800224A5A601F4B1F4A126842F080721A60F7
:1010E80000BF1C4B1B6803F00073002BF9D01C4B8E
:1010F80040F205621A60174B164A926822F0030202
:101108009A60144B134A926842F002029A6000BF38
:10111800104B9B6803F00C03082BF9D10D4B0D4ABB
:10112800926822F400029A600A4B0E4AC3F884209F
:10113800084B084A126842F080621A6000BF054BEB
:101148001B6803F00063002BF9D007F10C07BD46BC
:1011580080BC7047003802400070004008544007C7
:10116800003C02400030005090B484B000AF78607A
:101178003960154B1B68002B02D1134B134A1A60B8
:10118800114B1A683B68D218EFF3088423461946B6
:101198000F4B1B68CB1A9A4206D97B684FF00C029A
:1011A8001A604FF0FF3309E0074B1B68FB60064BE2
:1011B8001A683B68D218044B1A60FB68184607F196
:1011C8001007BD4690BC7047A8070020AC07002058
:1011D8002805002080B582B000AF786000F0C6FC1A
:1011E80007F10807BD4680BD80B582B000AF7860C2
:1011F80000F0CEFC07F10807BD4680BD80B58AB077
:1012080002AFF860B9603B601346FB80FB88184664
:10121800396B00F059FBB861BB69002B78D0BB690A
:101228001A6BFB8803F1FF334FEA8303D3187B6102
:101238007B6923F007037B61FB880093B869B96871
:10124800BA6A7B6B00F07AFA7869F9683A6800F054
:1012580009FC03461A46BB691A60FB6A002B02D0D8
:10126800FB6ABA691A6000F081FC354B1B6803F110
:101278000102334B1A60334B1B68002B09D1314BE9
:10128800BA691A602E4B1B68012B0FD100F09CFA2B
:101298000CE02D4B1B68002B08D12A4B1B68DA6A1F
:1012A800BB6A9A4202D8274BBA691A60BB69DA6AE4
:1012B800264B1B689A4203D9BB69DA6A234B1A602A
:1012C800234B1B6803F10102214B1A60BB69DA6AE0
:1012D800204B1B689A4203D9BB69DA6A1D4B1A6016
:1012E800BB69DA6A13464FEA83039B184FEA830304
:1012F8001A46194BD218BB6903F104031046194664
:1013080000F05EFB4FF00103FB6100F041FC02E0DE
:101318004FF0FF33FB61FB69012B0BD10A4B1B68B4
:10132800002B07D0074B1B68DA6ABB6A9A4201D2C6
:1013380000F010FCFB69184607F12007BD4680BD88
:101348007C070020A00600208C07002084070020CE
:10135800A007002088070020A406002080B586B0DA
:1013680004AF164B4FF000020092154A01924FF05D
:10137800000202924FF000020392124819464FF4FD
:1013880080724FF00003FFF739FF78607B68012B0C
:101398000FD14FF0BF0080F311880B4B4FF00102C3
:1013A8001A600A4B4FF000021A60FFF7A3FC00F026
:1013B800A9FB07F10807BD4680BD00BFC02600088D
:1013C80078070020211700088C07002080070020DC
:1013D80080B400AF044B1B6803F10102024B1A6092
:1013E800BD4680BC704700BF9007002090B583B011
:1013F80000AF4FF000037B6000F0B8FB384B1B6870
:1014080003F1FF32364B1A60354B1B68002B5ED157
:10141800344B1B68002B5AD04FF000033B602EE082
:10142800314BDB68DB681C4604F11803184600F0F2
:10143800EFFA04F10403184600F0EAFAE26A2B4BCB
:101448001B689A4202D9E26A284B1A60E26A13467C
:101458004FEA83039B184FEA83031A46244BD2189A
:1014680004F104031046194600F0AAFAE26A214B77
:101478001B68DB6A9A4202D34FF001033B601A4BA8
:101488001B68002BCCD11C4B1B68002B0FD007E02E
:1014980000F036F8184B1B6803F1FF32164B1A6040
:1014A800154B1B68002BF3D14FF001033B603B68E1
:1014B800012B03D0114B1B68012B08D14FF00103FE
:1014C8007B600E4B4FF000021A6000F043FB00F007
:1014D8005FFB7B68184607F10C07BD4690BD00BF4F
:1014E800900700207C07002038070020880700208C
:1014F800A4060020A00600209407002098070020DA
:1015080080B584B000AF444B1B68002B7AD1434BA5
:101518001B6803F10102414B1A60404B1B68002B0A
:1015280022D13F4B1B68FB603E4B1A683C4B1A604C
:101538003C4BFA681A603C4B1B6803F101023A4BBA
:101548001A60374B1B681B68002B04D1374B4FF0D0
:10155800FF321A6008E0324B1B68DB68DB68BB604F
:10156800BB685A68314B1A602C4B1A682F4B1B68A2
:101578009A424DD32A4B1B681B68002B04D12B4B76
:101588004FF0FF321A6043E0254B1B68DB68DB68CD
:10159800BB60BB685B687B60204B1A687B689A42BB
:1015A80003D2224B7A681A6032E0BB6803F1040365
:1015B800184600F02DFABB689B6A002B05D0BB6863
:1015C80003F11803184600F023FABB68DA6A184BCF
:1015D8001B689A4203D9BB68DA6A154B1A60BB6864
:1015E800DA6A13464FEA83039B184FEA83031A46C5
:1015F800104BD218BB6803F104031046194600F0DB
:10160800DFF9B7E70C4B1B6803F101020A4B1A60BC
:1016180007F11007BD4680BD900700208007002015
:1016280030070020340700209C0700202C050020EC
:1016380088070020A40600209407002080B582B007
:1016480000AF2E4B1B68002B04D02D4B4FF001022E
:101658001A604EE0FFF716FB02460B4613467B6006
:10166800284B1B68D96C284A12687868821A8A182D
:10167800DA64254B7A681A6005E0244B1B6803F18D
:10168800FF32224B1A60214B1A6813464FEA830334
:101698009B184FEA83031A461D4BD3181B68002B6F
:1016A800EBD01A4B1A6813464FEA83039B184FEA8C
:1016B80083031A46164BD3183B603B685B685A682D
:1016C8003B685A603B685A683B6803F108039A42D2
:1016D80004D13B685B685A683B685A603B685B6842
:1016E800DB681A46074B1A600A4B064A1268926C66
:1016F800DA6007F10807BD4680BD00BF90070020EB
:1017080098070020A0060020A407002088070020D2
:10171800A40600200074004080B582B000AF786055
:1017280000E000BF00F094F8034B1B68012BF8D9C8
:1017380000F010FAF6E700BFA406002080B584B0D8
:1017480000AFF860B9607A603B60FB6803F134036E
:101758001A46BB68104619464FF01002FFF778F892
:10176800FB684FF0000283F843207B68042B02D902
:101778004FF004037B60FB687A68DA62FB687A687A
:101788005A64FB6803F10403184600F00BF9FB6880
:1017980003F11803184600F005F9FB68FA681A61A6
:1017A8007B68C3F10502FB689A61FB68FA685A62B4
:1017B800FB684FF000029A64FB684FF00002DA649D
:1017C80007F11007BD4680BD80B582B000AF4FF06D
:1017D80000037B6010E07A6813464FEA83039B1886
:1017E8004FEA83031A46124BD318184600F0B6F88E
:1017F8007B6803F101037B607B68042BEBD90D4800
:1018080000F0ACF80C4800F0A9F80C4800F0A6F875
:101818000B4800F0A3F80B4800F0A0F80A4B054A63
:101828001A600A4B044A1A6007F10807BD4680BDD2
:10183800A4060020080700201C0700203807002005
:101848004C070020640700203007002034070020E0
:1018580080B582B000AF194B1B68002B2AD0FFF768
:10186800B7FD174B1B68002B14BF002301237B60B7
:10187800FFF7BCFD7B68002B1CD100F077F9104BFB
:10188800DB68DB683B603B6803F10403184600F043
:10189800BFF80C4B1B6803F1FF320A4B1A60074B69
:1018A8001B6803F1FF32054B1A6000F071F93868C4
:1018B80000F044F807F10807BD4680BD6007002026
:1018C8004C0700207C07002080B584B000AF034699
:1018D8003960FB804FF05000FEF792FC0346FB6036
:1018E800FB68002B23D03B68002B07D1FB884FEA0D
:1018F80083031846FEF784FC034600E03B68FA6859
:101908001363FB681B6B002B06D1F868FEF780FC9D
:101918004FF00003FB600AE0FB681A6BFB884FEA94
:10192800830310464FF0A5011A46FEF737FFFB6800
:10193800184607F11007BD4680BD00BF80B582B0CC
:1019480000AF78607B681B6B1846FEF761FC78680F
:10195800FEF75EFC07F10807BD4680BD80B483B082
:1019680000AF78607B6803F108031A467B685A6009
:101978007B684FF0FF329A607B6803F108031A46D0
:101988007B68DA607B6803F108031A467B681A6192
:101998007B684FF000021A6007F10C07BD4680BC57
:1019A800704700BF80B483B000AF78607B684FF0A9
:1019B80000021A6107F10C07BD4680BC704700BFE2
:1019C80080B485B000AF786039607B685B68FB6085
:1019D800FB685A683B685A607B685A683B689A603B
:1019E800FB685B683A689A603A68FB685A603A68CC
:1019F8007B685A603B687A681A617B681B6803F1E8
:101A080001027B681A6007F11407BD4680BC704765
:101A180080B485B000AF78607B685B687A6892684C
:101A28009A607B689B687A6852685A607B681B6911
:101A3800FB60FB685A687B689A4203D17B689A68A6
:101A4800FB685A607B684FF000021A61FB681B68EC
:101A580003F1FF32FB681A6007F11407BD4680BC2A
:101A6800704700BF80B485B000AFF860B9607A6095
:101A7800FB68A3F10403FB60FB684FF080721A60F7
:101A8800FB68A3F10403FB60BA68FB681A60FB6893
:101A9800A3F10403FB60FB684FF000021A60FB68C7
:101AA800A3F11403FB607A68FB681A60FB68A3F172
:101AB8000403FB60FB686FF002021A60FB68A3F185
:101AC8002003FB60FB68184607F11407BD4680BC7D
:101AD800704700BF054B19680868B0E8F04F80F3FD
:101AE80009884FF0000080F311887047A006002095
:101AF80003480068006880F3088862B600DF00BF0A
:101B080008ED00E080B500AF0F4B0F4A126842F4B1
:101B18007F021A600C4B0C4A126842F07F421A602E
:101B280000F08EF8094B4FF000021A6000F0A4F89C
:101B3800074B074A126842F040421A60FFF7D8FF85
:101B48004FF00003184680BD20ED00E0300500206E
:101B580034EF00E080B400AF034B4FF080521A60BE
:101B6800BD4680BC704700BF04ED00E080B400AF04
:101B78004FF0BF0080F31188044B1B6803F101028A
:101B8800024B1A60BD4680BC704700BF300500207C
:101B980080B400AF084B1B6803F1FF32064B1A6094
:101BA800054B1B68002B03D14FF0000080F3118810
:101BB800BD4680BC704700BF30050020EFF30980A8
:101BC800114B1A681EF0100F08BF20ED108A20E98B
:101BD800F04F10602DE908404FF0BF0080F31188E6
:101BE800FFF72CFD4FF0000080F31188BDE8084096
:101BF80019680868B0E8F04F1EF0100F08BFB0EC85
:101C0800108A80F309887047A006002080B582B04A
:101C180000AF0A4B4FF080521A604FF000037B6010
:101C28004FF0BF0080F31188FFF76AFC4FF0000007
:101C380080F3118807F10807BD4680BD04ED00E078
:101C480080B400AF084B094A1168094AA2FB010297
:101C58004FEA921202F1FF321A60064B4FF0070268
:101C68001A60BD4680BC704714E000E024050020DF
:101C7800D34D621010E000E0DFF80C00016841F479
:101C8800700101607047000088ED00E080B485B005
:101C980000AF786039604FF00003FB604FF000033D
:101CA800FB727B685B68FB60FB6823F0407323F47E
:101CB8008073FB603B681B794FEA03223B681B6813
:101CC80042EA0303FA6842EA0303FB607B68FA68A6
:101CD8005A607B689B68FB60FA681C4B02EA030346
:101CE800FB603B681A693B68DB681A433B689B6882
:101CF8001A433B685B794FEA430342EA0303FA68F5
:101D080042EA0303FB607B68FA689A607B68DB6AD7
:101D1800FB60FB6823F47003FB603B681B7D03F1E9
:101D2800FF33DAB2FB7A42EA0303FB72FB7A4FEA2B
:101D38000353FA6842EA0303FB607B68FA68DA62D5
:101D480007F11407BD4680BC704700BFFDF7FFC010
:101D580080B485B000AF78604FF00003FB60104B93
:101D68005B68FB60FA680F4B02EA0303FB607B6861
:101D78001A687B685B681A437B689B681A437B68B0
:101D8800DB6842EA0303FA6842EA0303FB60044B98
:101D9800FA685A6007F11407BD4680BC704700BF57
:101DA80000230140E030FCFF80B483B000AF7860CE
:101DB8000B46FB70FB78002B06D07B689B6843F0D2
:101DC80001027B689A6005E07B689B6823F001024A
:101DD8007B689A6007F10C07BD4680BC704700BF5E
:101DE80080B483B000AF0346FB71FB79002B06D0AB
:101DF800084B084A526842F400025A6005E0054B55
:101E0800044A526822F400025A6007F10C07BD46E2
:101E180080BC70470023014080B485B000AF786073
:101E2800F970BA707B704FF00003FB604FF000034D
:101E3800BB60FB78092B29D97B68DB68FB60FA78E3
:101E480013464FEA43039B18A3F11E034FF0070202
:101E580002FA03F3BB60BB686FEA0303FA6802EA9D
:101E68000303FB607978FA7813464FEA43039B181B
:101E7800A3F11E0301FA03F3BB60FA68BB6842EAE8
:101E88000303FB607B68FA68DA6024E07B681B69FF
:101E9800FB60FA7813464FEA43039B184FF007029A
:101EA80002FA03F3BB60BB686FEA0303FA6802EA4D
:101EB8000303FB607978FA7813464FEA43039B18CB
:101EC80001FA03F3BB60FA68BB6842EA0303FB60EC
:101ED8007B68FA681A61BB78062B29D87B685B6B2C
:101EE800FB60BB7803F1FF3213464FEA83039B186C
:101EF8004FF01F0202FA03F3BB60BB686FEA0303EB
:101F0800FA6802EA0303FB60F978BB7803F1FF3251
:101F180013464FEA83039B1801FA03F3BB60FA6880
:101F2800BB6842EA0303FB607B68FA685A6355E0C2
:101F3800BB780C2B29D87B681B6BFB60BA781346DF
:101F48004FEA83039B18A3F123034FF01F0202FA01
:101F580003F3BB60BB686FEA0303FA6802EA030392
:101F6800FB60F978BA7813464FEA83039B18A3F10C
:101F7800230301FA03F3BB60FA68BB6842EA030370
:101F8800FB607B68FA681A6328E07B68DB6AFB60A1
:101F9800BA7813464FEA83039B18A3F141034FF025
:101FA8001F0202FA03F3BB60BB686FEA0303FA6817
:101FB80002EA0303FB60F978BA7813464FEA830311
:101FC8009B18A3F1410301FA03F3BB60FA68BB68ED
:101FD80042EA0303FB607B68FA68DA6207F11407D8
:101FE800BD4680BC704700BF80B483B000AF786046
:101FF8007B689B6843F080427B689A6007F10C0716
:10200800BD4680BC704700BF80B483B000AF786025
:102018007B68DB6C9BB2184607F10C07BD4680BC99
:10202800704700BF80B487B000AF786039604FF068
:1020380000037B614FF000033B614FF00003FB603E
:102048004FF000037B6187E07B694FF0010202FAE1
:1020580003F33B613B681A683B6902EA0303FB60D0
:10206800FA683B699A4273D17B681A687B694FEAC0
:1020780043034FF0030101FA03F36FEA03031A4025
:102088007B681A607B681A683B681B7919467B690C
:102098004FEA430301FA03F31A437B681A603B686B
:1020A8001B79012B03D03B681B79022B34D17B6849
:1020B8009A687B694FEA43034FF0030101FA03F37F
:1020C8006FEA03031A407B689A607B689A683B68EA
:1020D8005B7919467B694FEA430301FA03F31A4314
:1020E8007B689A607B685A687B699BB24FF00101F4
:1020F80001FA03F36FEA03031A407B685A607B68AE
:102108005A683B689B7919467B699BB201FA03F3CD
:102118009BB21A437B685A607B68DA687B699BB21A
:102128004FEA43034FF0030101FA03F36FEA030395
:102138001A407B68DA607B68DA683B68DB791946A5
:102148007B694FEA430301FA03F31A437B68DA60B9
:102158007B6903F101037B617B690F2B7FF674AF09
:1021680007F11C07BD4680BC704700BF80B485B02E
:1021780000AF786013460A467A807B704FF0000300
:10218800FB604FF00003BB607A787B8803F007039D
:102198004FEA830302FA03F3FB607B884FEAD30319
:1021A8009BB21A467B884FEAD3039BB219467B68D9
:1021B80001F1080153F821107B8803F007034FEA67
:1021C80083034FF00F0000FA03F36FEA030319408B
:1021D8007B6802F1080243F822107B884FEAD30398
:1021E8009BB21A467B6802F1080253F82220FB686A
:1021F80042EA0303BB607B884FEAD3039BB21A46CB
:102208007B6802F10802B96843F8221007F1140745
:10221800BD4680BC704700BF80B489B000AF78600D
:102228004FF00003BB614FF000037B614FF00003E8
:10223800FB614FF002033B614FF00003FB604FF07E
:102248000203BB604F4B9B6803F00C03BB61BB6987
:10225800042B07D0082B09D0002B47D17B684A4AAA
:102268001A6047E07B68494A1A6043E0454B5B685F
:1022780003F480034FEA9353FB60424B5B6803F01F
:102288003F03BB60FB68002B0FD0404ABB68B2FB22
:10229800F3F23C4B596847F6C07301EA03034FEA6F
:1022A800931303FB02F3FB610EE0374ABB68B2FBF2
:1022B800F3F2344B596847F6C07301EA03034FEA57
:1022C800931303FB02F3FB612E4B5B6803F440336B
:1022D8004FEA134303F101034FEA43033B61FA69F1
:1022E8003B69B2FBF3F27B681A6003E07B68264A1D
:1022F8001A6000BF234B9B6803F0F003BB61BB6906
:102308004FEA1313BB61224ABB69D3181B78DBB2AF
:102318007B617B681A687B6922FA03F27B685A60E2
:10232800184B9B6803F4E053BB61BB694FEA9323E6
:10233800BB61174ABB69D3181B78DBB27B617B682A
:102348005A687B6922FA03F27B689A600D4B9B6896
:1023580003F46043BB61BB694FEA5333BB610C4A6A
:10236800BB69D3181B78DBB27B617B685A687B69D1
:1023780022FA03F27B68DA6007F12407BD4680BCC5
:10238800704700BF003802400024F40000127A00B1
:102398003405002080B483B000AF78600B46FB7032
:1023A800FB78002B07D00B4B0A4A116B7A6841EA7D
:1023B80002021A6308E0074B064A116B7A686FEA53
:1023C800020201EA02021A6307F10C07BD4680BC4B
:1023D800704700BF0038024080B483B000AF786017
:1023E8000B46FB70FB78002B07D00B4B0A4A116C8D
:1023F8007A6841EA02021A6408E0074B064A116C3F
:102408007A686FEA020201EA02021A6407F10C070D
:10241800BD4680BC704700BF0038024080B483B01E
:1024280000AF78600B46FB70FB78002B07D00B4B96
:102438000A4A516C7A6841EA02025A6408E0074B7A
:10244800064A516C7A686FEA020201EA02025A648B
:1024580007F10C07BD4680BC704700BF003802403A
:1024680080B58AB000AF786039604FF000037B62B6
:102478004FF000033B624FF00003FB614FF0000395
:10248800BB617B681B8A9BB27B627B6A23F44053E7
:102498007B623B68DB887A6A42EA03037B627B6A79
:1024A8009AB27B681A827B689B899BB27B627B6A43
:1024B80023F4B05323F00C037B623B689A883B6893
:1024C8001B8942EA03039AB23B685B8942EA030329
:1024D8009BB27A6A42EA03037B627B6A9AB27B68A0
:1024E8009A817B689B8A9BB27B627B6A23F44073E8
:1024F8007B623B689B897A6A42EA03037B627B6A58
:102508009AB27B689A8207F108031846FFF784FE9F
:102518007A683A4B9A4203D07A68394B9A4202D188
:102528007B693B6201E03B693B627B689B899BB2AC
:102538009BB21BB2002B0FDA3A6A13464FEA8303A9
:102548009B184FEA83029A183B681B684FEA4303BB
:10255800B2FBF3F3FB610EE03A6A13464FEA8303DA
:102568009B184FEA83029A183B681B684FEA83035B
:10257800B2FBF3F3FB61FA69224BA3FB02134FEAA8
:1025880053134FEA03137B627B6A4FEA13134FF02E
:10259800640202FB03F3FA69D31ABB617B689B8967
:1025A8009BB29BB21BB2002B10DABB694FEAC30384
:1025B80003F13202134BA3FB02134FEA531303F048
:1025C80007037A6A42EA03037B620FE0BB694FEABA
:1025D800031303F132020B4BA3FB02134FEA53130D
:1025E80003F00F037A6A42EA03037B627B6A9AB2BA
:1025F8007B681A8107F12807BD4680BD001001409D
:10260800001401401F85EB5180B483B000AF78609F
:102618000B46FB70FB78002B08D07B689B899BB22C
:1026280043F400539AB27B689A8107E07B689B89E0
:102638009BB223F400539AB27B689A8107F10C0786
:10264800BD4680BC704700BF80B483B000AF7860DF
:102658000B467B807B884FEAC3534FEAD3539AB229
:102668007B689A8007F10C07BD4680BC704700BFA5
:1026780080B485B000AF78600B467B804FF00003D4
:10268800FB737B681B889AB27B8802EA03039BB2C0
:10269800002B03D04FF00103FB7302E04FF000035F
:1026A800FB73FB7B184607F11407BD4680BC7047D7
:1026B8004164635461736B0049444C450000000059
:1026C8000D0A00002575202025632020252D313690
:1026D800732020202020202020202030202020307F
:1026E800252520202535750D0A0000002575202098
:1026F80025632020252D313673202531307520257E
:102708003375252520202535750D0A0025752020CF
:1027180025632020252D3136732025313075202062
:102728003C31252520202535750D0A004300000081
:10273800F8B500BFF8BC08BC9E467047F8B500BFA6
:08274800F8BC08BC9E46704776
:042750009D010008DF
:0427540089010008EF
:102758000000000000000000000000200000002031
:1027680008000020080000201000002010000020B1
:102778001800002018000020200000202000002061
:102788002800002028000020300000203000002011
:1027980038000020380000204000002040000020C1
:1027A8004800002048000020500000205000002071
:1027B8005800002058000020600000206000002021
:1027C80068000020680000207000002070000020D1
:1027D8007800002078000020800000208000002081
:1027E8008800002088000020900000209000002031
:1027F8009800002098000020A0000020A0000020E1
:10280800A8000020A8000020B0000020B000002090
:10281800B8000020B8000020C0000020C000002040
:10282800C8000020C8000020D0000020D0000020F0
:10283800D8000020D8000020E0000020E0000020A0
:10284800E8000020E8000020F0000020F000002050
:10285800F8000020F80000200001002000010020FE
:1028680008010020080100201001002010010020AC
:10287800180100201801002020010020200100205C
:10288800280100202801002030010020300100200C
:1028980038010020380100204001002040010020BC
:1028A800480100204801002050010020500100206C
:1028B800580100205801002060010020600100201C
:1028C80068010020680100207001002070010020CC
:1028D800780100207801002080010020800100207C
:1028E800880100208801002090010020900100202C
:1028F8009801002098010020A0010020A0010020DC
:10290800A8010020A8010020B0010020B00100208B
:10291800B8010020B8010020C0010020C00100203B
:10292800C8010020C8010020D0010020D0010020EB
:10293800D8010020D8010020E0010020E00100209B
:10294800E8010020E8010020F0010020F00100204B
:10295800F8010020F80100200002002000020020F9
:1029680008020020080200201002002010020020A7
:102978001802002018020020200200202002002057
:102988002802002028020020300200203002002007
:1029980038020020380200204002002040020020B7
:1029A8004802002048020020500200205002002067
:1029B8005802002058020020600200206002002017
:1029C80068020020680200207002002070020020C7
:1029D8007802002078020020800200208002002077
:1029E8008802002088020020900200209002002027
:1029F8009802002098020020A0020020A0020020D7
:102A0800A8020020A8020020B0020020B002002086
:102A1800B8020020B8020020C0020020C002002036
:102A2800C8020020C8020020D0020020D0020020E6
:102A3800D8020020D8020020E0020020E002002096
:102A4800E8020020E8020020F0020020F002002046
:102A5800F8020020F80200200003002000030020F4
:102A680008030020080300201003002010030020A2
:102A78001803002018030020200300202003002052
:102A88002803002028030020300300203003002002
:102A980038030020380300204003002040030020B2
:102AA8004803002048030020500300205003002062
:102AB8005803002058030020600300206003002012
:102AC80068030020680300207003002070030020C2
:102AD8007803002078030020800300208003002072
:102AE8008803002088030020900300209003002022
:102AF8009803002098030020A0030020A0030020D2
:102B0800A8030020A8030020B0030020B003002081
:102B1800B8030020B8030020C0030020C003002031
:102B2800C8030020C8030020D0030020D0030020E1
:102B3800D8030020D8030020E0030020E003002091
:102B4800E8030020E8030020F0030020F003002041
:102B5800F8030020F8030020FFFFFFFF0000020039
:102B68001404002000000000000000000000000025
:102B7800000000000000000000000000000000004D
:102B880000000000342700080000000000000000DA
:102B9800000000000000000000000000000000002D
:102BA800000000000000000000000000000000001D
:102BB800000000000000000000000000000000000D
:102BC80000000000000000000000000000000000FD
:102BD80000000000000000000000000000000000ED
:102BE80000000000000000000000000000000000DD
:102BF80000000000000000000000000000000000CD
:102C080000000000000000000000000000000000BC
:102C180000000000000000000000000000000000AC
:102C2800000000000000000000000000000000009C
:102C3800000000000000000000000000000000008C
:102C4800000000000000000000000000000000007C
:102C58000000000080050020800000000000000047
:102C680000000000000600208000000000000000B6
:102C780000000000007A030A00010000FFFFFFFFC8
:102C8800AAAAAAAA00000000010203040102030480
:042C9800060708091A
:0400000508000F8957
:00000001FF
